:020000040800F2
:1000000010470024F903000817260008C52400083B
:100010001526000849060008E73000080000000027
:10002000000000000000000000000000390300088C
:100030004B0600080000000095030008792800081E
:100040001304000813040008130400081304000834
:100050001304000813040008130400081304000824
:100060001304000813040008130400081304000814
:100070001304000813040008130400081304000804
:1000800013040008130400081304000813040008F4
:1000900013040008130400081304000813040008E4
:1000A00013040008130400081304000813040008D4
:1000B00013040008130400081304000813040008C4
:1000C00013040008130400081304000813040008B4
:1000D00013040008130400081304000813040008A4
:1000E00013040008130400080000000013040008B3
:1000F0001304000813040008130400081304000884
:100100001304000813040008130400081304000873
:100110001304000813040008130400081304000863
:100120001304000813040008130400081304000853
:100130001304000813040008130400081304000843
:1001400000000000000000000000000000000000AF
:100150001304000813040008130400081304000823
:100160001304000813040008130400081304000813
:100170001304000813040008130400081304000803
:1001800013040008130400081304000813040008F3
:1001900013040008130400081304000813040008E3
:1001A00013040008130400081304000813040008D3
:1001B00013040008130400081304000813040008C3
:1001C00013040008130400081304000813040008B3
:1001D00013040008130400081304000813040008A3
:1001E0001304000813040008130400081304000893
:1001F0001304000813040008130400081304000883
:100200001304000813040008130400081304000872
:100210001304000813040008352A0008130400081A
:100220001304000813040008130400080000000071
:100230001304000813040008000000001304000861
:100240001304000813040008130400081304000832
:100250001304000813040008130400081304000822
:100260001304000813040008130400081304000812
:100270001304000813040008130400080000000021
:100280001304000813040008130400080000000011
:10029000000000001304000800F002F800F03CF831
:1002A0000AA090E8000C82448344AAF10107DA45D1
:1002B00001D100F031F8AFF2090EBAE80F0013F0E7
:1002C000010F18BFFB1A43F001031847403A000022
:1002D000603A0000103A24BF78C878C1FAD85207B3
:1002E00024BF30C830C144BF04680C6070470000B0
:1002F0000023002400250026103A28BF78C1FBD82F
:10030000520728BF30C148BF0B6070471FB503F0CC
:1003100093FC1FBD10B510BD00F063F91146FFF747
:10032000F5FF02F0F3FE00F081F903B4FFF7F2FFEE
:1003300003BC02F0EAFE00002C4B19680868B0E824
:10034000F04F80F30988BFF36F8F4FF0000080F308
:10035000118870470000000008480068006880F3BA
:1003600008884FF0000080F3148862B661B6BFF3CE
:100370004F8FBFF36F8F00DF00BF00BF08ED00E0BD
:10038000DFF80C00016841F470010160704700BFA4
:1003900088ED00E0EFF30980BFF36F8F134B1A680D
:1003A0001EF0100F08BF20ED108A20E9F04F1060FA
:1003B00009B44FF0500080F31188BFF34F8FBFF3A3
:1003C0006F8F03F071FA4FF0000080F3118809BCC1
:1003D00019680868B0E8F04F1EF0100F08BFB0ECC5
:1003E000108A80F30988BFF36F8F704724000024C0
:1003F000EFF305807047000009488047094800472F
:10040000FEE7FEE7FEE7FEE7FEE7FEE7FEE7FEE7C4
:10041000FEE7FEE704480549054A064B7047000021
:1004200059290008990200081041002410470024AF
:100430001043002410430024704753EA020C00F0DC
:1004400069802DE9F04B4FF00006002B1FBFB3FA77
:1004500083F503FA05F424FA05F65E4012BF16434D
:10046000B2FA82F502FA05F4C5F120051EBF22FAA0
:1004700005FC44EA0C04203556EA044C4FEA1444C7
:1004800018BF641C4FF000084FF00009904271EB58
:10049000030C39D3002919BFB1FA81F701FA07F625
:1004A000B0FA80F700FA07F6C7F120071EBF20FA5E
:1004B00007FC46EA0C062037B6FBF4FCA7EB050761
:1004C000103F07F01F0BCBF120060CFA0BFB2CFAA8
:1004D00006F644BFB3460026202FA4BF5E464FF069
:1004E000000B5BEA060C08BF4FF0010B19EB0B0980
:1004F000ABFB027C48EB0608C01B06FB02CC0BFBE7
:1005000003CC71EB0C01C1E70B460246414648465D
:10051000BDE8F08B13B54FF000004FF00001AFF3D2
:100520000080BDE81C40704710B5203AC0F00B8039
:10053000B1E81850203AA0E81850B1E81850A0E8E7
:100540001850BFF4F5AF5FEA027C24BFB1E8185041
:10055000A0E8185044BF18C918C0BDE810405FEAB1
:10056000827C24BF51F8043B40F8043B08BF70472D
:10057000D20728BF31F8023B48BF11F8012B28BF32
:1005800020F8023B48BF00F8012B70474FF00002F3
:1005900000B5134694469646203922BFA0E80C5079
:1005A000A0E80C50B1F12001BFF4F7AF090728BF54
:1005B000A0E80C5048BF0CC05DF804EB890028BFD0
:1005C00040F8042B08BF704748BF20F8022B11F0F9
:1005D000804F18BF00F8012B704770477047704775
:1005E0007047754600F02CF8AE4605006946534644
:1005F00020F00700854618B020B5FFF70BFFBDE8D7
:1006000020404FF000064FF000074FF000084FF079
:10061000000B21F00701AC46ACE8C009ACE8C0090A
:10062000ACE8C009ACE8C0098D46704710B5044677
:10063000AFF300802046BDE81040FFF776BE000013
:1006400000487047AC400024FEE7704772B6FEE7F2
:100650002DE9F84F03247D4D00234FF001094FF0A1
:10066000B04B4FF00F0AE9E009FA03F73A4076D0B1
:100670000E7906F00306012E01D0022E18D1D0F813
:1006800008C04FEA430ECE6804FA0EF82CEA080CB4
:1006900006FA0EF646EA0C068660D0F804C00E791B
:1006A0002CEA070CC6F300169E4046EA0C0646608C
:1006B0000E79F643B6070BD0C6684FEA43088F6839
:1006C00004FA08FC26EA0C0607FA08F73743C76065
:1006D0000E7906F00306022E12D1DE080F694FEAEA
:1006E000437C00EB8606B646366A4FEADC6C0AFAB3
:1006F0000CF807FA0CF726EA08063743CEF8207004
:100700000F7906684FEA430807F0030704FA08FC6C
:1007100007FA08F726EA0C06374307604E6816F416
:10072000403F1CD04A4E376847F0020737603668B2
:100730009F0706F00206009623F0030606F1B04676
:10074000B6463F0FD6F80864DFF808810AFA07FCBE
:10075000404526EA0C0603D14FF0000C41E06CE066
:10076000DFF8F4C0604502D14FF0010C39E0DFF84A
:10077000ECC0604502D14FF0020C32E0DFF8E0C07F
:10078000604502D14FF0030C2BE0DFF8D8C0604584
:1007900002D14FF0040C24E0DFF8CCC0604502D158
:1007A0004FF0050C1DE0DFF8C4C0604502D14FF0EA
:1007B000060C16E0DFF8B8C0604502D14FF0070C18
:1007C0000FE0DFF8B0C0604502D14FF0080C08E040
:1007D000DFF8A4C0604502D14FF0090C01E04FF0F2
:1007E0000A0C0CFA07FC4CEA060CCEF808C44F6859
:1007F000DBF80060FF0226EA020600D516435F46DA
:10080000CBF80060D1F804C0DBF804605FEA8C2C00
:1008100026EA020600D516437E606E684F6826EA17
:100820000206BF0300D516436E602E684F6826EAA5
:100830000206FF0300D516432E605B1C0A6832FADD
:1008400003F67FF411AFBDE8F88F00008000005878
:10085000F4440258000002580004025800080258EC
:10086000000C0258001002580014025800180258D8
:10087000001C025800200258002402580AB181616D
:1008800070470904FBE7000001480068000C70474E
:100890000010005C014880687047000010000024D0
:1008A000024881680278114481607047100000247A
:1008B000032010B500F0FAF801F096F80F4A10493D
:1008C00014681368C4F3032203F00F038A5CC95C45
:1008D00002F01F0201F01F01D0400A4A20FA01F184
:1008E0001160094908600F2000F010F808B10120DC
:1008F00010BD00F09BF8002010BD00001844025805
:10090000DC3C0008200000241C00002410B5102846
:1009100004468AB02AD200220146762000F0A6F8CA
:10092000762000F095F8154804601548016841F4F8
:1009300080210160006808A900F4802009906846C1
:1009400000F0DEFF01F03EF80E49400000220E4CA0
:10095000B0FBF1F10D4840F2E7330460C0E9033227
:10096000491EC0E9011201F076FB10B101200AB066
:1009700010BD064801F0A2FBF9E7000014000024B6
:10098000F044025840420F00004801407003002428
:10099000F0B5154C4378211D0A1D23600378F3B18F
:1009A00043680B60057BC67A817A437B2D07847B85
:1009B00045EA0665C77B90F809C0067A90F800E022
:1009C00045EAC14040EA834040EA444040EA0740EB
:1009D00040EA0C2040EA460040EA0E0001E0002018
:1009E00008601060F0BD000098ED00E0BFF35F8F7D
:1009F000044800210368034A23F480330360703203
:100A00001160704724ED00E0074A40F001000649FC
:100A100070321060086840F480300860BFF34F8F78
:100A2000BFF36F8F7047000024ED00E0074882B0ED
:100A3000016841F002010160006800220F2100F00E
:100A400002000090901E02B000F010B8F44402586A
:100A5000002809DB410900F01F028900012001F193
:100A6000E0219040C1F80001704700000E4BF0B447
:100A70001B680D46C3F30223C3F10706042E00D9F9
:100A80000426191D072901D2002300E0DB1E0124E2
:100A900004FA06F19C40491E2940641E9940144006
:100AA0002143F0BC02F020BB0CED00E0064900F051
:100AB000070210B54FF6FF040868044B204040EAD7
:100AC00002201843086010BD0CED00E00000FA059C
:100AD000134970B50A68D243520705D5096801F079
:100AE0000701814213D118E00A6822F0070202438D
:100AF0000A60FFF7CFFE0A4D4FF47A760446083DB0
:100B000007E000BFFFF7C6FE001BB04201D901207D
:100B100070BD2868C0438004F4D4002070BD00007C
:100B20000C48025810B500F019FF05490968054A3C
:100B3000C1F30211515C01F01F01C84010BD00005B
:100B400020440258DC3C0008494930B5484C0B1D94
:100B50000A68143409681D68246802F00303C5F3A9
:100B60000012C1F30531C4F3CC04002914FB02F2D6
:100B700000EE102AF8EE400A75D03F4A9FED3D1A6C
:100B8000B7EE000A6BB1DFED3D1A012B01D0022B4D
:100B900064D002EE101A1168F8EE422A81EEA22A01
:100BA00021E0334C283C23689B0612D5344B246843
:100BB00001EE901A1168C4F3C104F8EE612AE34013
:100BC00001EE903AC1F30801F8EE611A81EEA22A13
:100BD0000BE001EE901ADFED2B2A00BFF8EE611A50
:100BE000116882EEA12AC1F3080101EE901A116882
:100BF000F8EE611A40EE811A71EE800A62EE200A68
:100C0000C1F3462101EE101AB8EE411A31EE001A76
:100C1000C0EE811ABCEEE11A80ED001A1168C1F332
:100C2000064101EE101AB8EE411A31EE001AC0EE7C
:100C3000811ABCEEE11A80ED011A1168C1F3066158
:100C400001EE101AB8EE411A31EE000A80EE801A59
:100C5000BCEEC10A80ED020A30BD04E001EE901A3C
:100C6000DFED092ABAE70021016041608160F3E706
:100C70002844025800000039384402580024744ABD
:100C80000090D0030024744C20BCBE4B494930B5C1
:100C9000484C0B1D0A681C3409681D68246802F062
:100CA0000303C5F30022C1F30551C4F3CC040029AA
:100CB00014FB02F200EE102AF8EE400A75D03F4A0B
:100CC0009FED3D1AB7EE000A6BB1DFED3D1A012B27
:100CD00001D0022B64D002EE101A1168F8EE422AFD
:100CE00081EEA22A21E0334C283C23689B0612D5D2
:100CF000344B246801EE901A1168C4F3C104F8EE75
:100D0000612AE34001EE903AC1F30801F8EE611A5E
:100D100081EEA22A0BE001EE901ADFED2B2A00BF34
:100D2000F8EE611A116882EEA12AC1F3080101EE02
:100D3000901A1168F8EE611A40EE811A71EE800A7D
:100D400062EE200AC1F3462101EE101AB8EE411AF4
:100D500031EE001AC0EE811ABCEEE11A80ED001AE5
:100D60001168C1F3064101EE101AB8EE411A31EED6
:100D7000001AC0EE811ABCEEE11A80ED011A11686A
:100D8000C1F3066101EE101AB8EE411A31EE000A05
:100D900080EE801ABCEEC10A80ED020A30BD04E08C
:100DA00001EE901ADFED092ABAE7002101604160E7
:100DB0008160F3E72844025800000039404402589B
:100DC0000024744A0090D0030024744C20BCBE4B15
:100DD0002DE9FC5F044650F8241B002500902E46A8
:100DE0000801FE4FDFF8F8831DD5606E50B1B0F5F5
:100DF000801F0CD0B0F5001F0ED0B0F5401F1DD0E5
:100E000001250FE0386840F40030386016E0022118
:100E1000201D01F001FC03E00098022101F08CFC90
:100E200005000BD02E462088C00523D5606D05280F
:100E30001ED2DFE800F00C11161B1B00626ED8F802
:100E4000001021F440111143C8F80010EBE7386896
:100E500040F40030386009E00021201D01F0DCFB87
:100E600003E00098002101F067FC05466DB100E049
:100E700001252E462088800528D5A06D80281ED00B
:100E80000CDC90B140280ED114E0626DD8F800104F
:100E900021F007011143C8F80010EBE7C02813D078
:100EA000B0F5807F10D001250FE0386840F40030A5
:100EB000386009E00021201D01F0AEFB03E000983E
:100EC000002101F039FC054695B12E462088DFF857
:100ED0001093400509F108092CD5D4F8A400B0F509
:100EE000800F20D00DDCA0B1B0F5001F0FD115E0B0
:100EF000A26DD8F8001021F4E0711143C8F8001079
:100F0000E4E7B0F5C00F13D0B0F5000F10D0012505
:100F10000FE0386840F40030386009E00021201DFF
:100F200001F07AFB03E00098002101F005FC054682
:100F300075B12E46208800052DD5D4F8A800B0F153
:100F4000007F21D00EDCA8B1B0F1807F10D116E077
:100F5000D4F8A420D9F8001021F460011143C9F895
:100F60000010E7E7B0F1407F13D0B0F1806F10D0F0
:100F700001250FE0386840F40030386009E00021B6
:100F8000201D01F049FB03E00098002101F0D4FB93
:100F900005466DB12E46206880011FD5A06CD8B1E2
:100FA00010280FD0202812D0302815D0012514E0A9
:100FB000D4F8A820D9F8001021F0E0611143C9F855
:100FC0000010E8E7386840F40030386004E002219F
:100FD000201D01F021FB05466DB12E462088C0047E
:100FE0002BD5E06DB0F5005F20D00DDCA0B1B0F5E1
:100FF000805F0FD115E07A48A26C001F016821F0D4
:10100000300111430160E9E7B0F5405F13D0B0F55E
:10101000804F10D001250FE0386840F40030386070
:1010200009E00021201D01F0F7FA03E000980021FB
:1010300001F082FB054685B12E462088800429D523
:10104000206EB0F5403F23D010DC08B3B0F5803FF0
:1010500014D0B0F5003F0FD115E0E26DD8F80010C4
:1010600021F4E0411143C8F80010E6E7B0F5802F05
:101070000ED0B0F5A02F0BD001250AE00121201DD4
:1010800001F0CAFA03E00098012101F055FB054682
:101090008DB12E46208840042AD5D4F8AC00B0F19A
:1010A000405F23D010DC08B3B0F1805F14D0B0F102
:1010B000005F0FD115E0226ED8F8001021F4E02176
:1010C0001143C8F80010E5E7B0F1804F0ED0B0F141
:1010D000A04F0BD001250AE00121201D01F09CFA50
:1010E00003E00098012101F027FB05466DB12E4673
:1010F000208800041FD5E06ED8B1B0F1805F0ED01B
:10110000B0F1005F10D0012514E0D4F8AC20D9F87C
:10111000001021F0E0411143C9F80010E8E73868F9
:1011200040F40030386004E00121201D01F074FA21
:1011300005466DB12E462068C0011ED5606CD0B149
:1011400001280ED0022811D0032814D0012513E065
:10115000E26ED8F8001021F040511143C8F8001099
:10116000E9E7386840F40030386004E00221201DCF
:1011700001F052FA054685B12E462068DFF85CB0D2
:101180004002ABF11C0B57D51648016841F4807141
:101190000160FFF77FFB82460EE01148626C001F82
:1011A000016821F0030111430160E6E7FFF772FBDC
:1011B000A0EB0A0064283DD80A480068C005F5D5B0
:1011C0007DBBDFF81CA0B4F8B0200AF1200ADAF8E1
:1011D000001002F4407001F4407105E02C44025804
:1011E0005044025800480258814211D0DAF80010E9
:1011F000DAF8002021F4407142F48032CAF800206D
:10120000DAF8002022F48032CAF80020CAF8001070
:10121000D4F8B000B0F5807F21D1FFF73BFB0190FF
:1012200019E008E0FFF736FB0199411A41F28830D6
:10123000814210D903252E462078DFF844A4C00748
:101240003DD0A06F182838D026DC80B3082829D0DC
:10125000102825D12CE0DAF800008007E2D5D4F878
:10126000B010C1F30120032858460DD0016821F4C5
:101270007C510160B4F8B020DAF80010C2F30B0220
:101280001143CAF80010D7E7FE4A036802EA1112B8
:1012900023F47C511143ECE720280ED028280CD0F1
:1012A00001250BE00121201D01F0B6F904E004E066
:1012B0000098012101F040FA05465DB12E462078E4
:1012C00080071ED5606F062819D2DFE800F0160CE3
:1012D00011161616A26FDAF8001021F0380111432A
:1012E000CAF80010EBE70121201D01F095F903E099
:1012F0000098012101F020FA054675B100E00125B2
:101300002E46207840071FD5D4F89000062819D221
:10131000DFE800F0160C11161616626FDAF80010EE
:1013200021F007011143CAF80010EAE70121201D4E
:1013300001F072F903E00098012101F0FDF9054682
:101340009DB100E001252E46207880062BD5D4F8EB
:101350008C00B0F1405F24D011DC10B3B0F1805F9D
:1013600015D0B0F1005F10D116E0D4F89020D9F874
:10137000001021F007011143C9F80010E4E7B0F1B3
:10138000804F0ED0B0F1A04F0BD001250AE0002114
:10139000201D01F041F903E00098022101F0CCF991
:1013A00005468DB12E46207840062BD5D4F89800FE
:1013B000B0F5406F24D011DC10B3B0F5806F15D0BC
:1013C000B0F5006F10D116E0D4F88C20DAF80010D8
:1013D00021F0E0411143CAF80010E4E7B0F5805F66
:1013E0000ED0B0F5A05F0BD001250AE00021201D32
:1013F00001F012F903E00098022101F09DF9054681
:101400008DB12E46207800062BD5D4F89C00B0F57F
:10141000C04F24D011DC10B3B0F5005F15D0B0F58B
:10142000804F10D116E0D4F89820D9F8001021F49C
:10143000E0511143C9F80010E4E7B0F5004F0ED0B9
:10144000B0F5204F0BD001250AE00021201D01F04E
:10145000E3F803E00098022101F06EF905464DB172
:101460002E46207800071ED5D4F88000B0F5805FA6
:101470000AD00FE0D4F89C20D9F8001021F4604184
:101480001143C9F80010ECE70098022101F054F96B
:1014900000B10126D4F88020DAF8001021F4405180
:1014A0001143CAF800102078C00613D5D4F8940070
:1014B000B0F5807F05D10098022101F03DF900B11F
:1014C0000126D4F89420D9F8001021F4407111437A
:1014D000C9F800102068000316D5D4F8A00038B170
:1014E000B0F5803F09D0B0F5003F0BD001250AE0F0
:1014F0000021201D01F090F803E00098022101F086
:101500001BF9054685B12E462068400322D5D4F844
:101510008400B0F5801F11D0B0F5001F13D0B0F5D6
:10152000401F15D0012514E0D4F8A020D9F80010F0
:1015300021F440311143C9F80010E5E7386840F460
:101540000030386004E00098012101F0F5F805460C
:1015500055B12E462068C0031CD5E06C70B1B0F5C3
:10156000803F10D0012514E0D4F88420DAF8001070
:1015700021F440111143CAF80010EBE7386840F439
:101580000030386004E00221201D01F045F80546D6
:10159000CDB12E462068800005D50098022101F0CB
:1015A000CBF800B10126206880031BD5E06FB8B1ED
:1015B000B0F5807F10D0B0F5007F11D0B0F5407F3E
:1015C0000ED001250DE02E48E26C0838016821F4A8
:1015D000803111430160DDE7386840F40030386045
:1015E000F5B32E462068C00207D5226FD8F8001048
:1015F00021F000411143C8F800102068C00008D550
:10160000D4F8B420DBF8001021F480411143CBF86A
:1016100000102068800207D5A26ED8F8001021F0D3
:1016200080711143C8F80010206840000CD5DBF829
:10163000001021F40041CBF80010DBF80010D4F8C2
:10164000B8201143CBF800102068002807DA0C48B6
:10165000226D0838016821F040511143016000E01B
:1016600014E02068000208D5D4F88820DAF80010C9
:1016700021F440011143CAF8001086B1012003E0B3
:1016800054440258CFFFFF00BDE8FC9FE26FDAF838
:10169000001021F440711143CAF80010A2E70020A5
:1016A000EDE700002DE9F05F04000F467ED0DFF883
:1016B0003882D8F8000000F00F00B8420CD2D8F8F9
:1016C000001021F00F013943C8F80010D8F80000CD
:1016D00000F00F00B84269D12078844D40070AD548
:1016E0002069296801F07001884204D9296821F035
:1016F00070010143296020787C4E361D00070AD511
:101700006069316801F07001884204D9316821F0C4
:101710007001014331602078C0060AD5A0693168A4
:1017200001F4E061884204D9316821F4E0610143A9
:1017300031602078DFF8B4B180060BF1080B0CD5CE
:10174000E1695846DBF8002002F07002914204D9AA
:10175000026822F070020A430260207880070AD5EE
:10176000E068296801F00F01884204D9296821F056
:101770000F01014329602078C0073ED05B49A26871
:101780002868183920F470601043286060680228C7
:1017900018D0032819D00968012819D04907002951
:1017A0004ADADFF848A1AAF1080A00E044E0DAF8D2
:1017B000002022F007020243CAF80020FFF76AF86F
:1017C000814612E009688903E9E709688901E6E7CB
:1017D000C905E4E7FFF75EF8A0EB090141F28830A4
:1017E000814202D90320BDE8F09F6168DAF8000069
:1017F00000F03800B0EBC10FECD1207880070AD59B
:10180000E068296801F00F01884204D2296821F0BC
:101810000F0101432960D8F80010404601F00F0184
:10182000B9420BD9016821F00F013943016000680A
:1018300000F00F00B84201D00120D4E72078400723
:101840000AD52069296801F07001884204D229680C
:1018500021F0700101432960207800070AD56069F2
:10186000316801F07001884204D2316821F07001C2
:10187000014331602078C0060AD5A069316801F4BF
:10188000E061884204D2316821F4E06101433160B3
:10189000207880060CD5E1695846DBF8002002F07C
:1018A0007002914204D2026822F070020A43026080
:1018B00000F09AF80E492A682B68C2F3032203F05D
:1018C0000F038A5CC95C02F01F0201F01F01D040C7
:1018D000084A20FA01F111600749086007480068CA
:1018E000BDE8F05FFFF712B800200052184402581C
:1018F000DC3C0008200000241C000024140000240C
:1019000070B5144C3F220260124A24680832131D3D
:10191000114D04F00704446016681C1D06F470663F
:101920008660166806F00F06C660126802F0700244
:1019300002611A6802F0700242611A6802F4E06201
:101940008261226802F07002C261286800F00F0014
:10195000086070BD104402580020005230B500F0FD
:1019600043F80B4A0B490C4B15681468C5F3032266
:1019700004F00F048A5C095D02F01F0201F01F01F0
:10198000D040064A20FA01F119601060084630BDC7
:1019900018440258DC3C0008200000241C000024ED
:1019A00000B5FFF7DBFF05490968054AC1F30211DD
:1019B000515C01F01F01C84000BD00001C440258EA
:1019C000DC3C000800B5FFF7C9FF05490968054A76
:1019D000C1F30221515C01F01F01C84000BD0000AD
:1019E0001C440258DC3C0008454970B5454809686C
:1019F000434B103B11F0380208D00111082A03D0E4
:101A0000102A0BD0182A0BD0084670BD1968890619
:101A1000FBD51968C1F3C101C84070BD3A4870BD1B
:101A20003749374D18310C1D24350A680968266876
:101A30002D6802F0030406F00102C1F30511C5F39D
:101A4000CC0515FB02F200EE102AB8EE400AE9B30D
:101A50002F4ADFED2E0AB7EE001A6CB1DFED2D1A1A
:101A6000012C01D0022C43D002EE101A1068F8EEBF
:101A7000422A81EEA22A1EE01C68A40611D51B682A
:101A800001EE901A1168C3F3C103F8EE612AD84041
:101A900001EE900AC1F30800F8EE611A81EEA22A65
:101AA0000BE001EE901ADFED1C2A00BFF8EE611A80
:101AB000106882EEA12AC0F3080001EE900AF8EE49
:101AC000611A40EE201A31EE810A00E015E022EEA4
:101AD000000A1068C0F34620401C00EE900AF8EEA1
:101AE000600A80EE201ABCEEC10A10EE100A70BD2A
:101AF00001EE901ADFED092AD8E7002070BD000042
:101B0000104402580090D00340787D010000003955
:101B1000304402580024744A0024744C20BCBE4B4C
:101B20002DE9F05F04007DD0FF4F2078FE4D18377F
:101B3000DFF8F493103DC00748D0D9F800003968A9
:101B400000F03800102815D0182803D101F0030048
:101B500002280FD06068B0F5803F12D010B1B0F508
:101B6000A02F18D0286820F480302860286820F43E
:101B7000802009E02868800328D560680028D2D03A
:101B800024E0286840F480302860606888B1FEF75F
:101B900081FE064609E0286840F480202860F0E7CE
:101BA000FEF778FE801B64286FD828688003F7D57D
:101BB0000CE0FEF76FFE064605E000BFFEF76AFE8A
:101BC000801B6428F0D828688003F7D4207841F27D
:101BD0000308D54E0C3E800769D5D9F80000396856
:101BE00010F038000ED0182801D188070AD0E0681C
:101BF00090B3296821F0190101432960FEF74AFEDC
:101C0000824631E02868400702D5E06800288AD083
:101C1000E168286820F0190008432860FEF73AFEC2
:101C2000824607E0DFE000BFFEF734FEA0EB0A00CB
:101C30000228B9D828684007F6D500BFFEF724FE71
:101C400040451BD82069402812D0316821F47C31EE
:101C500041EA003030602AE018E000BFFEF71AFECB
:101C6000A0EB0A0002289FD828684007F6D5E5E7D0
:101C7000306820F47C3040F40030EBE7207C3168A1
:101C800021F0FE4141EA0060E4E70DE1286820F020
:101C900001002860FEF7FEFD824605E0FEF7FAFD32
:101CA000A0EB0A0002288DD828684007F6D42078D7
:101CB000C0065DD5D9F80000DFF86CB2396800F0D5
:101CC0003800ABF1040B082810D0182803D101F01C
:101CD000030001280AD0E0690028286838D040F0C5
:101CE00080002860FEF7D6FD824623E02868C00504
:101CF00023D5E069802876D11FE0206A202821D0F2
:101D0000316821F0F84141EA8060306030E000BF86
:101D100094F82010DBF8002022F07C5242EA0161A6
:101D2000CBF8001024E000BFFEF7B4FDA0EB0A00E2
:101D3000022898D82868C005F6D5FEF7A5FD4045CD
:101D4000E6D8DAE7306820F0F84040F08040DCE781
:101D500020F080002860FEF79DFD064605E000BFEC
:101D6000FEF798FD801B02289DD82868C005F7D48F
:101D70002078000729D56C486169643000298046C5
:101D8000016811D041F001010160FEF783FD0646B4
:101D900005E000BFFEF77EFD801B0228C9D8D8F8F9
:101DA00000008007F6D510E021F001010160FEF788
:101DB00071FD064605E000BFFEF76CFD801B0228A2
:101DC00072D8D8F800008007F6D42078800623D592
:101DD000A0690028286810D040F480502860FEF7E1
:101DE00059FD064605E02CE1FEF754FD801B022854
:101DF0005AD828688004F7D50EE020F48050286077
:101E0000FEF748FD064604E0FEF744FD801B02286D
:101E10004AD828688004F7D4207840074FD5DFF8E7
:101E20000C81D8F8001041F48071C8F80010FEF75A
:101E300031FD064605E000BFFEF72CFD801B64283F
:101E400032D8D8F80000C005F6D5374EA068603605
:101E500001280AD008B1052813D0306820F001000D
:101E60003060306820F0040002E0306840F001008B
:101E70003060A06841F2883A90B1FEF70BFD8046D1
:101E80000AE0306840F004003060EEE7FEF702FD43
:101E9000A0EB0801514507D830688007F6D50EE061
:101EA000FEF7F8FC804607E084E000BFFEF7F2FC96
:101EB000A0EB080151457DD830688007F6D4606AF0
:101EC000B0B3DFF86480D9F8001008F12008C1F33E
:101ED000C20103296FD00228286820F08070286092
:101EE00003D0FEF7D7FC044680E0FEF7D3FC06469D
:101EF00005E000BFFEF7CEFC801B022873D82868DF
:101F00008001F7D4E26A40F2F331386854F8283F90
:101F1000884340EA021018433860217B4FF4FE0CDE
:101F200022894FF0FE4704E010440258004802584E
:101F300089E0208A4902521E267DA1F5007189B2EE
:101F4000401EC2F308021143761E0CEA0040014312
:101F50003E4807EA066211433C4AC8F800100832BE
:101F6000016821F00101016011684FF6F876236ADB
:101F7000B14341EAC30111600168A26921F00C017B
:101F8000114301600168E26921F00201114301601F
:101F9000016841F480310160016841F40031016061
:101FA000016841F480210160016841F00101016094
:101FB000286801E017E01DE040F080702860FEF71F
:101FC00069FC044605E000BFFEF764FC001B022824
:101FD00009D828688001F7D535E000BFFEF75AFC24
:101FE000001B022802D90320BDE8F09F2868800169
:101FF000F4D428E039680128D8F8000021D0A26A7A
:1020000001F0030393421CD1E26AC1F305118A4235
:1020100017D1216BC0F30802491E8A4211D1616BAE
:10202000C0F34622491E91420BD1A16BC0F3064278
:10203000491E914205D1E16BC0F30660491E814201
:1020400001D00120D0E70020CEE700002C44025848
:1020500070477047704710B5040003D094F83D00F6
:1020600010B107E0012010BD002084F83C0020469C
:1020700000F022F8022084F83D002068211D00F0C5
:10208000DFFC012084F8480084F83E0084F83F001B
:1020900084F8400084F8410084F8420084F843004A
:1020A00084F8440084F8450084F8460084F847002A
:1020B00084F83D00002010BD7047000090F83D10EE
:1020C000012901D001207047174A022180F83D10F4
:1020D0000168CB6843F00103CB600068904214D0E4
:1020E000B0F1804F11D0114988420ED0104988427A
:1020F0000BD01049884208D00F49884205D00F49BB
:10210000884202D00E49884207D181680D4A1140A9
:10211000062906D0B1F5803F03D0016841F00101E6
:1021200001600020704700000000014000040040F2
:1021300000080040000C004000040140001800406E
:102140000040014007000100704770B50446006878
:1021500000250169C943890715D4C168C9438907A6
:1021600011D4EA1E0261012121772068806980076D
:10217000204602D0FFF7E8FF04E000F0A7F8204671
:1021800000F0A5F8257720680169C943490717D4ED
:10219000C168C943490713D402216FF004020261E8
:1021A00021772068806910F4407F204602D0FFF735
:1021B000CBFF04E000F08AF8204600F088F825778D
:1021C00020680169C943090716D4C168C9430907D2
:1021D00012D404216FF00802026121772068C069DF
:1021E0008007204602D0FFF7AFFF04E000F06EF852
:1021F000204600F06CF8257720680169C943C906BC
:1022000017D4C168C943C90613D408216FF010025E
:10221000026121772068C06910F4407F204602D017
:10222000FFF792FF04E000F051F8204600F04FF86D
:10223000257720680169C943C90708D1C168C94326
:10224000C90704D1891E0161204600F041F82068C9
:102250000169C943090609D4C168C943090605D4FF
:102260006FF0800101612046FFF7F3FE20680169ED
:10227000C943C90509D4C168C943090605D46FF427
:10228000807101612046FFF7E3FE20680169C943C0
:10229000490609D4C168C943490605D46FF0400115
:1022A0000161204600F01EF820680169C9438906D3
:1022B0000BD4C168C943890607D46FF020010161BE
:1022C0002046BDE87040FFF7C5BE70BD704770473F
:1022D00000680349884201D1FEF7E2BA7047000066
:1022E00000480140704730B590F88010012918D09F
:1022F000012280F880202421C0F8841000222024AC
:1023000050F8641B0B680D6823F0005325F001059D
:102310000D60026050F8641C0B6004620277104686
:1023200030BD022030BD70B5044690F88000012811
:102330001DD0012284F880202420C4F88400206865
:102340000568026822F0010202602068826822F0BB
:1023500060620A438260204600F0D4FB226820219C
:1023600000201560C4F8841084F8800070BD02203D
:1023700070BD70B5044690F8800001281DD0012280
:1023800084F880202420C4F884002068056802684E
:1023900022F0010202602068826822F060420A4353
:1023A0008260204600F0AEFB2268202100201560EC
:1023B000C4F8841084F8800070BD022070BD10B590
:1023C000040003D0D4F8840010B107E0012010BD50
:1023D000002084F88000204600F026F82420C4F86D
:1023E00084002068016821F001010160204600F0AE
:1023F0003FFC0128EBD0A06A10B1204600F0A4FBFE
:102400002068416821F4904141602068816821F092
:102410002A0181602068016841F0010101602046C5
:10242000BDE8104000F0F4BBF0B5B5B0044614218F
:102430002FA8FEF7ABF8BC216846FEF7A7F81E49A7
:102440002068884236D10DF1040C01270097052041
:102450001E2102248CE8130008261E9606A9CDE949
:102460000404802268462023002581E82C00FEF722
:10247000AFFC08B1FEF7EAF81048016841F010011E
:102480000160006800F0100034900C4810380168BA
:1024900041F00201016000682FAA072100F002004C
:1024A0003490C02082E83100CDE9325104482FA990
:1024B000FEF7CEF835B0F0BD00100140F0440258F0
:1024C00000040258FEE7000010B59CB016491C221B
:1024D0006846FEF729F80021684600F05DFE134CBF
:1024E0001C2211491C31206007A8FEF71DF80021AD
:1024F00007A800F051FE0C491C2260600EA838317C
:10250000FEF712F800210EA800F046FE06491C2234
:10251000A06015A85431FEF707F8002115A800F0B7
:102520003BFEE0601CB010BD443C000800000024ED
:1025300010B586B014216846FEF728F819480168DE
:1025400041F002010160016801F00201059101689A
:1025500041F001010160016801F00101059101688C
:1025600041F004010160016801F004010591016876
:1025700041F080010160006801220B4C032100F052
:10258000800005902046FEF779F901210022032002
:10259000CDE90001CDE9021269462046FEF758F860
:1025A00006B010BDE044025800040258184800214B
:1025B00010B5164C0C224FF4E1330460C0E9013130
:1025C000C160C0E904128161C1610162416281623E
:1025D000FFF7F5FE08B1FEF739F80D480021FFF7C7
:1025E000C8FE08B1FEF732F809480021FFF79BFE4C
:1025F00008B1FEF72BF80648FFF775FE002803D058
:10260000BDE81040FEF722B810BD000000100140E8
:10261000E0020024FEE7FEE72DE9F047454D0446C1
:1026200089464FF0000A2868C04380070AD0414E0F
:10263000283E306820F080603060FEF72BF90746B6
:10264000B04608E00120BDE8F08700BFFEF722F9A0
:10265000C01B022867D8D8F800000001F6D4206813
:1026600029684FF4FE0721F47C313E0241EA003034
:102670002860207AA389B4F804C040022D4D2D496A
:102680005B1E227CACF1010C1035091DA0F5007019
:1026900080B2521ECCF3080C07EA034340EA0C0058
:1026A000184306EA0262104328600868626920F055
:1026B000C000104308600A68A06922F020020243AB
:1026C0000A60281D0A6822F010020A6002684FF6AC
:1026D000F873E4699A4342EAC40202600868B9F1F7
:1026E000000F40F010020A6011D00868B9F1010F24
:1026F00011D040F400100860D8F80000444640F0C3
:102700008060C8F80000FEF7C5F805460DE00868CF
:1027100040F40020EFE740F48010ECE7FEF7BAF851
:10272000401B022801D903208DE720680001F5D560
:10273000504688E7284402582DE9F047454D0446A5
:1027400089464FF0000A2868C04380070AD0414EEE
:10275000283E306820F080503060FEF79BF8074636
:10276000B04608E00120BDE8F08700BFFEF792F810
:10277000C01B022867D8D8F800008000F6D4208853
:1027800029684FF4FE0721F07C713E0241EA0050B7
:102790002860207AA389B4F804C040022D4D2D4949
:1027A0005B1E227CACF1010C1835091DA0F50070F0
:1027B00080B2521ECCF3080C07EA034340EA0C0037
:1027C000184306EA0262104328600868626920F430
:1027D0004060104308600A68A06922F40072024356
:1027E0000A60281D0A6822F480720A6002684FF6A7
:1027F000F873E4699A4342EAC40202600868B9F1D6
:10280000000F40F480720A6011D00868B9F1010F1E
:1028100011D040F080700860D8F80000444640F0C5
:102820008050C8F80000FEF735F805460DE008684E
:1028300040F48000EFE740F40000ECE7FEF72AF8F0
:10284000401B022801D903208DE720688000F5D5C0
:10285000504688E728440258012000F091FCFBE72D
:10286000012000F08DFCFBE7012000F089FCFBE774
:10287000012000F085FCFBE7502010B580F31188A3
:10288000BFF34F8FBFF36F8F01F00EF918B10449FA
:102890004FF080500860002080F3118810BD0000C8
:1028A00004ED00E0F0B59DB04C216846FDF76EFEEA
:1028B000202113A8FDF76AFE0220FEF709F923483C
:1028C00000242349026842F44042026002680A6818
:1028D00042F001020A60096801F001011B910168E0
:1028E0008904FCD51B4902200A6808250123C60378
:1028F000052722F00302921C0A60C0210990CDE94D
:102900000A07CDE90C100F90CDE91054CDE900363F
:102910000E9068461294FFF703F908B172B6FEE70D
:1029200040201A903F210301CDE916500322CDE942
:10293000180313AB13A883E816000421FEF7B2FEB8
:10294000002801D072B6FEE71DB0F0BD184802584D
:102950002C040058284402582C48F0B52C4A016831
:1029600041F470010160106800F00F00072804D2E4
:10297000106820F00F00C01D106026490020254C73
:1029800010340B68244D43F001030B6020600B688A
:102990002B400B60136803F00F03072B04D9136857
:1029A00023F00F03DB1D13601A4C1C4A18341C4B18
:1029B000261D371D2060174C1A4D28343060261D07
:1029C0003860371D23603B1D35601C1D3A60251D96
:1029D0002E1D1860331D22602860326018600A685E
:1029E0000C4B114C22F4802260330A60186020687E
:1029F0006FF30F00B0F1005F03D20C490120C1F862
:102A0000080143F2D2000A490860F0BD88ED00E0F9
:102A100000200052004402587FEDF6EA80020101D6
:102A2000000202020000FF010010005C0080005163
:102A3000004000520148FFF788BB000070030024EB
:102A40002DE9F047274B4FF0804A274D0268984206
:102A5000264E274F274C09D0504507D0A84205D015
:102A6000B04203D0B84201D0A04205D1D1F804C091
:102A700022F070024CEA0202DFF87CC0DFF87C80B2
:102A80009842DFF87C900FD050450DD0A8420BD073
:102A9000B04209D0B84207D0A04205D0604503D06B
:102AA000404501D0484503D1CD6822F440722A4305
:102AB0004D6922F080022A43026098428A68C2620D
:102AC0000A68826207D0A04205D0604503D0404525
:102AD00001D0484501D10969016301214161BDE887
:102AE000F0870000000001400004004000080040A2
:102AF000000C00400004014000400140004401403F
:102B00000048014030B5416EB9B101680D4B03F189
:102B100008048A688968C2F34262490F5D5C615C9F
:102B20002D01B5FBF1F1A0F86A10995CA25C0901D6
:102B3000B1FBF2F1A0F8681030BD0121A0F86A10D5
:102B4000F8E70000CC3C000890F82810C90706D030
:102B50000168C36A4A6822F400321A434A6090F856
:102B60002810890706D50168036B4A6822F4803271
:102B70001A434A6090F82810490706D50168436B4C
:102B80004A6822F480221A434A6090F82810090704
:102B900006D50168836B4A6822F400421A434A60F2
:102BA00090F82810C90606D50168C36B8A6822F41C
:102BB00080521A438A6090F82810890606D5016869
:102BC000036C8A6822F400521A438A6090F8281035
:102BD000490611D50168436C4A6822F480121A43F1
:102BE0004A60416CB1F5801F06D10168836C4A6868
:102BF00022F4C0021A434A6090F82810090606D54C
:102C00000168C26C486820F4002010434860704797
:102C1000F8B500260446C0F88C60FDF73BFE05467B
:102C200020686FF07E470068000708D500222B4619
:102C30004FF400112046009700F0F0F960B92068C9
:102C4000006840070AD500222B464FF48001204639
:102C5000009700F0E3F908B10320F8BD2020C4F884
:102C60008400C4F88800E666002084F88060F8BD1F
:102C70002DE9F04304468068D84E87B0D84B2168D0
:102C8000D4E90427D4F81CC010430A68002547EA99
:102C90000C073843324002430A602068E26841680A
:102CA00021F44051114341602268A1699A4201D048
:102CB000206A01439768DFF82CC3CB4ECB4807EA64
:102CC0000C070F4397602168676ACA6A22F00F02F7
:102CD0003A43CA622268B2420ED1006800F038005E
:102CE000182873D047DCB8B3082879D010286FD1E2
:102CF00078E028287ED17BE0BD498A4209D100686E
:102D000000F00700062875D2DFE800F0546A6C6E08
:102D10007072B8498A4209D1006800F0070006289D
:102D200068D2DFE800F0475D5F616365B2498A42BF
:102D300009D1006800F0070006285BD2DFE800F048
:102D40003A5052545658AD498A420BD1006800F0AF
:102D5000070006284ED200E010E0DFE800F02B412B
:102D600043454749A6498A420AD1006800F0380025
:102D7000182839D0B7DD2028BBD13CE001203AE04B
:102D8000A0498A4209D1006800F00700062831D224
:102D9000DFE800F01026282A2C2E9B498A420BD10E
:102DA000006800F00700062824D2DFE800F00319CD
:102DB0001B1D1F2100201EE09A421BD18B48001DC5
:102DC000006800F00700062814D202E00CE007E0DB
:102DD00010E0DFE800F0030507090B0D02200AE010
:102DE000042008E0082006E0102004E0202002E093
:102DF000402000E080208549DFF814829A42854A0D
:102E00004FF400434FEA21174FF000064ED110282F
:102E10001AD006DC022809D004280BD008287CD15F
:102E20000DE020283ED0402877D13DE0FDF77AFE26
:102E3000014610E06846FDF787FE01990BE003A804
:102E4000FDF724FF049906E01068800605D5106898
:102E5000C0F3C100C140002970D0606A676838F8CB
:102E6000102007EB4703B1FBF2F0834255D8B0EBDB
:102E7000073F52D8002308461946FDF7DEFA0246FE
:102E80007808130E120243EA012110183A467141E4
:102E90000023FDF7D2FA604AA0F5407191423CD878
:102EA00021688FE03946D8E71946D6E7D4F81CC028
:102EB0004FF6EF799C4546D1082819D005DC58B16A
:102EC00001280CD0042875D10DE0102815D0202839
:102ED00035D040286ED134E0FEF762FD01E0FEF708
:102EE00071FD014610E06846FDF72EFE01990BE0EA
:102EF00003A8FDF7CBFE049906E01068800604D510
:102F00001068C0F3C100C140C1B1636A606838F89D
:102F10001330B1FBF3F1490000E04BE001EB50014D
:102F2000B1FBF0F0A0F11001494543D84FF6F07322
:102F30002168C0F342021840104343E043E03946A1
:102F4000E3E71946E1E7082819D005DC58B1012864
:102F50000CD004282ED10DE0102815D020282BD01D
:102F6000402827D12AE0FEF71BFD01E0FEF72AFDED
:102F7000014610E06846FDF7E7FD01990BE003A864
:102F8000FDF784FE049906E01068800604D51068F9
:102F9000C0F3C100C140B1B1636A606838F8133052
:102FA000B1FBF3F101EB5001B1FBF0F0A0F1100126
:102FB000494505D9012506E03946EDE71946EBE715
:102FC000216880B2C8600120A4F86A00A4F86800F3
:102FD00028462667666707B0BDE8F083F369FFCF30
:102FE000000C0058FFF4FF11001001405444025837
:102FF0000044004000480040004C004000500040A9
:103000000014014000780040007C00400090D00394
:10301000B43C000800440258FFFC0F002DE9F047C3
:103020009A4617460E460446089D4FF000094FF099
:1030300020084CE0681C4AD0FDF72CFCA0EB0A00ED
:10304000A8422AD84DB32068016849073FD5C06916
:10305000C04300053BD421684FF40060086221683A
:1030600051E8000F20F4D07041E80002002AF6D1A8
:103070002068083050E8001F21F0010140E80012EC
:10308000002AF5D1C4F8848084F88090C4F8888040
:10309000C4F88C800320BDE8F087206850E8001F4A
:1030A00021F4D07140E80012002AF6D120680830DF
:1030B00050E8001F21F0010140E80012002AF5D17C
:1030C000C4F8848084F88090C4F88880E2E720689F
:1030D000C06936EA000004D00020B842AAD000201F
:1030E000D9E70120F9E7FEE7090700284FEA116157
:1030F00004DB00F1E02080F80014704700F00F00BE
:1031000000F1E02080F8141D704770471FB50024BF
:103110000094019402940394FDF768FC01208DF85B
:103120000C001F218DF8081087228DF809208DF8DA
:103130000D008DF8000068468DF80A408DF80E40AD
:103140008DF8014001948DF80B408DF80F40FDF78C
:103150001FFC0420FDF758FCFDF7AAFBFFF7A2FBBC
:10316000FFF7E6F9FFF722FAFFF7AEF900F00FF8E4
:10317000FEE7842801464FF0000000D0C81C7047CD
:1031800010B500B9012000F02BFB002010BD10B5D8
:1031900000F04CFB002010BD7FB50D464169044690
:1031A000B0F9080081B1A16971B1FFF7E2FFD4E97C
:1031B00005122B468DE807002269D4E9001000F0C3
:1031C00048FC039004B070BDFFF7D3FF03A92B4662
:1031D000CDE90001228AD4E9001092B200F00CFC83
:1031E000012801D00020EDE70398EBE72DE9F0413D
:1031F000184C0F460546E6682068001D00F026FAC8
:1032000038B922680121206992F82C209140884326
:103210002061681C07D137B12168BDE8F0410E4834
:10322000091D00F059BA20683544B542456021684F
:1032300005D2A06B091DBDE8F04100F035BA606B06
:10324000091D00F031FAA06A854200D2A562BDE8EE
:10325000F081000024000024980400242DE9F041AE
:10326000054600F045FA2E4C2E4FA068401CA06089
:10327000206810B1606940B32DE02560A068012886
:1032800029D1002606EB860007EB800000F0FEF94E
:10329000761C072EF6D323488C3000F0F7F921482E
:1032A000A03000F0F3F91F48B43000F0EFF91D48EA
:1032B000C83000F0EBF91B48DC3000F0E7F91948A2
:1032C0008C3060631430A06305E0E86A2168C96A45
:1032D000814200D825600120616A491C6162E96A67
:1032E000226988401043206101EB8100291D07EB12
:1032F000800000F0F1F900F01BFA606900280CD0A2
:103300002068E96AC06A884207D207494FF08050B6
:103310000860BFF34F8FBFF36F8FBDE8F0810000EF
:1033200024000024BC03002404ED00E010B5044692
:1033300090F8510058B101280CD002280FD050202D
:1033400080F31188BFF34F8FBFF36F8FFEE7206BC1
:1033500000F002FA2046BDE8104000F0FDB910BDB3
:1033600011484FF4705110B5420706D00E49C01DE8
:1033700020F00700411AC1F570510C4C00230144A4
:103380000839A4F1180221F00701C4E900030C1A5E
:1033900011604B600B60C0E9001494604FF0004175
:1033A0005460516110BD0000AC040024780000247A
:1033B000144E4FF08058144CDFF85090A6F1C80717
:1033C00012E000BF00F094F9F068C568281D00F015
:1033D0003DF9A068401EA0606068401E606000F07B
:1033E000A7F92846FFF7A2FF60680028EAD13868ED
:1033F0000128F9D9C9F80080BFF34F8FBFF36F8F51
:10340000F2E70000840400242400002404ED00E01E
:103410002DE9F0479A4681466FF00303DDE9098400
:1034200003EB8202089E206B104420F00707780708
:1034300007D0502080F31188BFF34F8FBFF36F8FF9
:10344000FEE74FF0000561B1002023180A5C83F805
:1034500034200A5C12B1401C1028F6D384F8435083
:1034600001E084F83450072E00D30626E662201DC2
:10347000C4E9116500F015F904F1180000F011F924
:10348000E564C6F10700A06184F8505052462461FB
:1034900049463846646200F0C1F8B8F1000F206078
:1034A00001D0C8F80040BDE8F087000030B51149F0
:1034B00000E011460A688242FBD34B685C188442E4
:1034C00003D14468084623444B6043681D18954265
:1034D00009D1084C183C2468A24209D052681A4409
:1034E00042600A6812680260814200D0086030BD04
:1034F0000460F9E7780000240648416B096829B1A7
:10350000416BC968C9684968816270474FF0FF31F3
:10351000FAE700002400002408484068401C4FF0EF
:10352000500080F3118804D0BFF34F8FBFF36F8F2B
:10353000FEE7BFF34F8FBFF36F8FFEE780000024DD
:103540002DE9F0410027044600F0A6F9324E30681C
:1035500008B9FFF705FF706904424ED1C4B30834BF
:1035600060070ED004F00700C0F1080004446007B3
:1035700007D0502080F31188BFF34F8FBFF36F8FB8
:10358000FEE72CB37068844237D8234818300146D0
:103590000D6801E028460D466968A14202D22968FB
:1035A0000029F7D131688D4227D00768296801606A
:1035B00008376868011B10290FD92819420708D05D
:1035C000502080F31188BFF34F8FBFF36F8FFEE75A
:1035D00013E041606C60FFF769FF69687068401A2A
:1035E0007060B268904200D2B060002072691143EE
:1035F000C5E90001F068401CF06000F0BBFA7807F4
:1036000007D0502080F31188BFF34F8FBFF36F8F27
:10361000FEE73846BDE8F0816000002470B5041F65
:10362000094E231F4FF0807521F0010125601C1FFA
:103630001960A0F120010B1F266044380A606FF06A
:1036400002051D6070BD000019350008D0E9013287
:1036500001699A60D0E901235A604A68824201D127
:1036600082684A60002202610868401E086008689B
:103670007047000010B5044C8023046004F154002E
:103680000860136010BD00008C0000244FF0FF3371
:1036900000F108010022C0E901130260C16001616C
:1036A000704700210161704730B50B685A1C02D089
:1036B00000F1080202E0026904E02246546825682D
:1036C0009D42FAD953684B6099608A6051600861E5
:1036D0000168491C016030BD42684A6093688B6094
:1036E00093685960916008610168491C01607047E6
:1036F000502080F31188BFF34F8FBFF36F8F0A49BB
:103700004868401C486001280CD10848006810F047
:10371000FF0F07D0502080F31188BFF34F8FBFF306
:103720006F8FFEE7704700008000002404ED00E08A
:103730000849486828B1401E486001D180F31188CB
:103740007047502080F31188BFF34F8FBFF36F8F06
:10375000FEE700008000002470B500282AD0164D36
:10376000A0F1080461686869014207D1502080F324
:103770001188BFF34F8FBFF36F8FFEE722683AB116
:10378000502080F31188BFF34F8FBFF36F8FFEE798
:103790008143616000F080F860686968084468608F
:1037A0002046FFF783FE2869401C2861BDE8704071
:1037B00000F0E0B970BD0000600000244FF0E02090
:1037C000002101614FF47A7281610723034909687E
:1037D000B1FBF2F1491E4161036170471C000024F6
:1037E000020010B514D00F48006B38B1502080F3A0
:1037F0001188BFF34F8FBFF36F8FFEE700F04CF8D7
:1038000000211046FFF7F2FC00F0B4F9002807D1C0
:1038100005494FF080500860BFF34F8FBFF36F8FA3
:1038200010BD00002400002404ED00E010B586B0B7
:10383000002405AA04A9039403A80494FFF71AFF1F
:10384000DDE9030100940023CDE9011010480EA129
:10385000059A00F0FEF80F490028C86211D05020E8
:1038600080F31188BFF34F8FBFF36F8F01224FF0AA
:10387000FF3088624A61CC6006B0BDE8104000F0BD
:1038800041B806B010BD000049444C45000000009E
:10389000B1330008240000240248016B491C016375
:1038A00070470000240000241448016B11B101216D
:1038B000C16170470021C16111490269B2FA82F207
:1038C000C2F11F0202EB820251F822306BB101EB10
:1038D000820101F108034A6852684A609A4201D1A4
:1038E00052684A60D16801607047502080F31188A7
:1038F000BFF34F8FBFF36F8FFEE70000240000245B
:10390000BC03002437481CB5374902688A4207D1F6
:10391000502080F31188BFF34F8FBFF36F8FFEE706
:1039200031490068491E884207D1502080F3118830
:10393000BFF34F8FBFF36F8FFEE72C49FF200A784C
:103940000192087008788DF800009DF800209DF81D
:10395000000002F0F002824207D0502080F311886C
:10396000BFF34F8FBFF36F8FFEE79DF80020072056
:103970001F4C02F050022270A06005E09DF800206C
:1039800052008DF80020401E9DF800201206F5D44C
:103990000328A06007D0502080F31188BFF34F8F19
:1039A000BFF36F8FFEE74FF44070A060019808707E
:1039B0000C482030016841F470010160016841F059
:1039C00070410160FFF7FAFE00206060FCF7D8FC50
:1039D0000848016841F040410160FCF7BDFC00204F
:1039E0001CBD000000ED00E071C20F4100E400E0EA
:1039F0008000002434EF00E02DE9FF5F9946164671
:103A00008A4683469000DDE90E87FFF799FD0500A1
:103A10001CD05420FFF794FD040014D0002025632F
:103A200084F851004B46CDE90087CDE9024032468B
:103A300051465846FFF7ECFC2046FFF70FFC0120EB
:103A400004B0BDE8F09F2846FFF786FE4FF0FF3038
:103A5000F6E7F0B585B0DDE90B740A9DA7B1DCB1DE
:103A600054262763022684F85160002703970DF13E
:103A7000100C0095CDE901C4FFF7CAFC2046FFF702
:103A8000EDFB049805B0F0BD502080F31188BFF322
:103A90004F8FBFF36F8FFEE7502080F31188BFF385
:103AA0004F8FBFF36F8FFEE72DE9F0412F4C206B56
:103AB000002728B1A069401CA0613846BDE8F0810C
:103AC000E668761CE66013D1606B006838B1502060
:103AD00080F31188BFF34F8FBFF36F8FFEE7606BEA
:103AE000A16B6163A063206A401C2062FFF704FDA4
:103AF000DFF87C80A06A864209D3606B0068A0B1C1
:103B0000606BC068C5686868864211D2A062206890
:103B1000C06A00EB800158F82100012800D9012774
:103B2000E0690028C9D00127C7E74FF0FF30EDE773
:103B3000281DFFF78BFDA86A18B105F11800FFF7E3
:103B400085FDE96A0120226988401043206101EB6C
:103B5000810108EB8100291DFFF7BEFD2068E96A9D
:103B6000C06A8142C9D30127C7E7000024000024AE
:103B7000BC0300242DE9F0472C4D286B0024264679
:103B800038B1FFF7B5FD286B401E2863286B40B1A4
:103B900047E0502080F31188BFF34F8FBFF36F8F42
:103BA000FEE7234F0120A968D9B3A7F1B4098046E5
:103BB0003868E8B1F868C46804F11800FFF746FDFA
:103BC000201DFFF743FDE16A2A6908FA01F010435E
:103BD000286101EB810109EB8100211DFFF77CFDCC
:103BE0002968E06AC96A8842E2D3C5F81C80DFE729
:103BF0000CB1FFF781FCAC6944B14746FFF754FFB5
:103C000000B1EF61641EF9D10020A861E86940B1FC
:103C1000084901264FF080500860BFF34F8FBFF373
:103C20006F8FFFF785FD3046BDE8F0872400002444
:103C30007004002404ED00E04FF04070E1EE100A43
:103C400070470000003D00085928000800000000EF
:103C500000000000800000000000000000000000E4
:103C6000F83C000861280008000000000000000087
:103C7000800000000000000000000000EC3C000894
:103C8000692800080000000000000000800000001B
:103C90000000000000000000F03C0008712800084F
:103CA0000200000000000000800000000000000092
:103CB00000000000010002000400060008000A00E5
:103CC0000C001000200040008000000101010103F1
:103CD00007010000080402040801010100000000BF
:103CE000010203040102030406070809434F4D00C3
:103CF0004465627567000000426C696E6B000000ED
:103D000064656661756C745461736B002C3D0008CA
:103D1000000000248C000000D4020008B83D000818
:103D20008C00002484460000F0020008000000001F
:103D30000000000000000000000000000100000082
:103D400010000000000000000090D0030090D0039D
:103D50000000000000000000000000000000000063
:103D60000000000000000000000000000000000053
:103D70000000000000000000000000000000000043
:103D80000000000000000000000000000000000033
:103D90000000000000000000000000000000000023
:103DA0000000000000000000000000000000000013
:083DB000AAAAAAAA0000000063
:040000050800029954
:00000001FF
